{
	"data": {
		"bytecode": {
			"linkReferences": {},
			"object": "608060405234801561001057600080fd5b50610188806100206000396000f3fe608060405234801561001057600080fd5b50600436106100415760003560e01c806370a08231146100465780637ecebe001461006f578063dd62ed3e14610082575b600080fd5b6100596100543660046100f3565b610095565b6040516100669190610149565b60405180910390f35b61005961007d3660046100f3565b6100a7565b610059610090366004610115565b6100b9565b60006020819052908152604090205481565b60026020526000908152604090205481565b600160209081526000928352604080842090915290825290205481565b80356001600160a01b03811681146100ed57600080fd5b92915050565b600060208284031215610104578081fd5b61010e83836100d6565b9392505050565b60008060408385031215610127578081fd5b61013184846100d6565b915061014084602085016100d6565b90509250929050565b9081526020019056fea2646970667358221220d4824a6f10acf9b5dc5cbc8134d33bcfcb14a0c2104e48915650e080261de9c564736f6c634300060c0033",
			"opcodes": "PUSH1 0x80 PUSH1 0x40 MSTORE CALLVALUE DUP1 ISZERO PUSH2 0x10 JUMPI PUSH1 0x0 DUP1 REVERT JUMPDEST POP PUSH2 0x188 DUP1 PUSH2 0x20 PUSH1 0x0 CODECOPY PUSH1 0x0 RETURN INVALID PUSH1 0x80 PUSH1 0x40 MSTORE CALLVALUE DUP1 ISZERO PUSH2 0x10 JUMPI PUSH1 0x0 DUP1 REVERT JUMPDEST POP PUSH1 0x4 CALLDATASIZE LT PUSH2 0x41 JUMPI PUSH1 0x0 CALLDATALOAD PUSH1 0xE0 SHR DUP1 PUSH4 0x70A08231 EQ PUSH2 0x46 JUMPI DUP1 PUSH4 0x7ECEBE00 EQ PUSH2 0x6F JUMPI DUP1 PUSH4 0xDD62ED3E EQ PUSH2 0x82 JUMPI JUMPDEST PUSH1 0x0 DUP1 REVERT JUMPDEST PUSH2 0x59 PUSH2 0x54 CALLDATASIZE PUSH1 0x4 PUSH2 0xF3 JUMP JUMPDEST PUSH2 0x95 JUMP JUMPDEST PUSH1 0x40 MLOAD PUSH2 0x66 SWAP2 SWAP1 PUSH2 0x149 JUMP JUMPDEST PUSH1 0x40 MLOAD DUP1 SWAP2 SUB SWAP1 RETURN JUMPDEST PUSH2 0x59 PUSH2 0x7D CALLDATASIZE PUSH1 0x4 PUSH2 0xF3 JUMP JUMPDEST PUSH2 0xA7 JUMP JUMPDEST PUSH2 0x59 PUSH2 0x90 CALLDATASIZE PUSH1 0x4 PUSH2 0x115 JUMP JUMPDEST PUSH2 0xB9 JUMP JUMPDEST PUSH1 0x0 PUSH1 0x20 DUP2 SWAP1 MSTORE SWAP1 DUP2 MSTORE PUSH1 0x40 SWAP1 KECCAK256 SLOAD DUP2 JUMP JUMPDEST PUSH1 0x2 PUSH1 0x20 MSTORE PUSH1 0x0 SWAP1 DUP2 MSTORE PUSH1 0x40 SWAP1 KECCAK256 SLOAD DUP2 JUMP JUMPDEST PUSH1 0x1 PUSH1 0x20 SWAP1 DUP2 MSTORE PUSH1 0x0 SWAP3 DUP4 MSTORE PUSH1 0x40 DUP1 DUP5 KECCAK256 SWAP1 SWAP2 MSTORE SWAP1 DUP3 MSTORE SWAP1 KECCAK256 SLOAD DUP2 JUMP JUMPDEST DUP1 CALLDATALOAD PUSH1 0x1 PUSH1 0x1 PUSH1 0xA0 SHL SUB DUP2 AND DUP2 EQ PUSH2 0xED JUMPI PUSH1 0x0 DUP1 REVERT JUMPDEST SWAP3 SWAP2 POP POP JUMP JUMPDEST PUSH1 0x0 PUSH1 0x20 DUP3 DUP5 SUB SLT ISZERO PUSH2 0x104 JUMPI DUP1 DUP2 REVERT JUMPDEST PUSH2 0x10E DUP4 DUP4 PUSH2 0xD6 JUMP JUMPDEST SWAP4 SWAP3 POP POP POP JUMP JUMPDEST PUSH1 0x0 DUP1 PUSH1 0x40 DUP4 DUP6 SUB SLT ISZERO PUSH2 0x127 JUMPI DUP1 DUP2 REVERT JUMPDEST PUSH2 0x131 DUP5 DUP5 PUSH2 0xD6 JUMP JUMPDEST SWAP2 POP PUSH2 0x140 DUP5 PUSH1 0x20 DUP6 ADD PUSH2 0xD6 JUMP JUMPDEST SWAP1 POP SWAP3 POP SWAP3 SWAP1 POP JUMP JUMPDEST SWAP1 DUP2 MSTORE PUSH1 0x20 ADD SWAP1 JUMP INVALID LOG2 PUSH5 0x6970667358 0x22 SLT KECCAK256 0xD4 DUP3 0x4A PUSH16 0x10ACF9B5DC5CBC8134D33BCFCB14A0C2 LT 0x4E 0x48 SWAP2 JUMP POP 0xE0 DUP1 0x26 SAR 0xE9 0xC5 PUSH5 0x736F6C6343 STOP MOD 0xC STOP CALLER "
		},
		"gasEstimates": {
			"creation": {
				"codeDepositCost": "78400",
				"executionCost": "129",
				"totalCost": "78529"
			},
			"external": {
				"allowance(address,address)": "infinite",
				"balanceOf(address)": "1238",
				"nonces(address)": "1257"
			}
		},
		"methodIdentifiers": {
			"allowance(address,address)": "dd62ed3e",
			"balanceOf(address)": "70a08231",
			"nonces(address)": "7ecebe00"
		}
	},
	"abi": [
		{
			"inputs": [
				{
					"internalType": "address",
					"name": "",
					"type": "address"
				},
				{
					"internalType": "address",
					"name": "",
					"type": "address"
				}
			],
			"name": "allowance",
			"outputs": [
				{
					"internalType": "uint256",
					"name": "",
					"type": "uint256"
				}
			],
			"stateMutability": "view",
			"type": "function"
		},
		{
			"inputs": [
				{
					"internalType": "address",
					"name": "",
					"type": "address"
				}
			],
			"name": "balanceOf",
			"outputs": [
				{
					"internalType": "uint256",
					"name": "",
					"type": "uint256"
				}
			],
			"stateMutability": "view",
			"type": "function"
		},
		{
			"inputs": [
				{
					"internalType": "address",
					"name": "",
					"type": "address"
				}
			],
			"name": "nonces",
			"outputs": [
				{
					"internalType": "uint256",
					"name": "",
					"type": "uint256"
				}
			],
			"stateMutability": "view",
			"type": "function"
		}
	]
}